:1000000000308A00C42800006110AD162D103E108B
:100010002518B33AA012B01975102518B33A8A06FC
:1000200000002430840083130008031924280230C0
:10003000F800F701F70B1A28F80B19289730F7008A
:10004000F70B2028800B17280800831603178C173E
:100050000C14000000000318552883120C087F3987
:100060000313A40003170D080313A50003170F08BB
:100070000313A60024080C1E3B289900250803172B
:100080008D000313260803178F0083168C170C149A
:100090000000000083120313A30B4F28522883167D
:1000A0000317552875288316031783120C0D0E0DA0
:1000B0007F390313A40003170D080313A5000317CA
:1000C0000F080313A60024080C1E642899002508B5
:1000D00003178D000313260803178F008D0A0319D9
:1000E0008F0A03100313A30B25288A11242926083D
:1000F000F801250203187F282508F7008B28F7014F
:100100000830A700A50DF70D260877020318F700A1
:10011000F80DA70B8228080078082308A500643092
:10012000A60077207708A30078083030031D9F28A9
:10013000A41CA728A419A728241A2030A228A41197
:1001400024122414F80778080C1EA4289900230808
:10015000A5000A30A60077207708A3007808303081
:10016000031DB828A419BD28241CBD28241A20303A
:10017000F80778080C1EBA2899003030A307230826
:100180000C1EC02899000800840183131F308305CA
:10019000723083168F000F080C309900A23098003F
:1001A00090308312980083161F129F121B0880390B
:1001B0009B0007309C0083128501FF308316850069
:1001C000003086001F129F121B0880397F389B0069
:1001D0001F1383121F179F1383169F1383121F145D
:1001E0000030F8001F08C73978049F000A30A400C7
:1001F00011201F151F19FA281E08A0000830F8004A
:100200001F08C73978049F000A30A40011201F1569
:100210001F1908291E08A1001030F8001F08C7394F
:1002200078049F000A30A40011201F151F191629F9
:100230001E08A200043003178D0000308F00031049
:1002400008300313A30025282008A3000330A400CE
:100250008C2020300C1E2A2999002108A30003308D
:10026000A4008C2020300C1E332999002208A30002
:100270000330A4008C200A300C1E3C2999000D305C
:100280000C1E402999000430A300FA30A40011206C
:08029000A30B4529F0286300CF
:04400E00112FFC3F33
:00000001FF
;PIC16F88
;CRC=5190  CREATED="15-feb-12 22:33"
