:1000000000308A00C02800006110AD162D1F251891
:10001000B33A8A060000831603178C170C140000ED
:10002000000003183B2883120C087F390313A20039
:1000300003170D080313A30003170F080313A400ED
:1000400022080C1E21289900230803178D00031392
:10005000240803178F0083168C170C14000000006F
:1000600083120313A10B35283828831603173B2866
:100070005B288316031783120C0D0E0D7F390313B3
:10008000A20003170D080313A30003170F0803139F
:10009000A40022080C1E4A289900230803178D008B
:1000A0000313240803178F008D0A03198F0A031006
:1000B0000313A10B0B288A1102292408F80123023B
:1000C000031865282308F7007128F7010830A500F8
:1000D000A30DF70D240877020318F700F80DA50B00
:1000E0006828080078082108A3006430A4005D2077
:1000F0007708A10078083030031D8528A21C8D28C0
:10010000A2198D28221A20308828A2112212221426
:10011000F80778080C1E8A2899002108A3000A30E5
:10012000A4005D207708A10078083030031D9E28C8
:10013000A219A328221CA328221A2030F807780825
:100140000C1EA02899003030A10721080C1EA628FB
:1001500099008A11072921308400831300080319AC
:10016000BE280230F800F701F70BB428F80BB328CB
:100170009730F700F70BBA28800BB1288A111229A3
:10018000840183131F308305723083168F000F089C
:100190000C309900A2309800903083129800A00192
:1001A00083161F129F121B0880399B0007309C008A
:1001B00083128501FF3083168500003086001F12F0
:1001C0009F121B08803901389B001F1383121F17D1
:1001D0009F1383169F1383121F140030F8001F080B
:1001E000C73978049F001F151F19F4281E08A000A6
:1001F000043003178D0000308F0003100630031306
:10020000A1000B282008A1000330A20072280A30A8
:100210000C1E082999000D300C1E0C299900643021
:08022000A100AB28F3286300E4
:04400E00112FFC3F33
:00000001FF
;PIC16F88
;CRC=3234  CREATED="15-feb-12 17:25"
