:1000000000308A0035280000233084008313000864
:10001000031917280230F800F701F70B0D28F80B29
:100020000C289730F700F70B1328800B0A280800DC
:10003000A101A001A108031D33282008FA3C031CDC
:10004000332883168611831286110230A300042000
:1000500083168611831286150230A3000420A00A9D
:100060000319A10A1A288A114628840183131F3014
:100070008305723083168F000F081F129F121B0812
:1000800080399B0007309C00831218280430A2009E
:0E009000FA30A3000420A20B48284528630084
:04400E00183FFF3F19
:00000001FF
;PIC16F88
;CRC=B27A  CREATED="28-mar-12 15:39"
