:1000000000308A0031280000061486140615080006
:10001000263084008313000803191B280230F800DF
:10002000F701F70B1128F80B10289730F700F70BA2
:100030001728800B0E2808006430A500A0012008B6
:10004000043C031C2F280610861006112508A60064
:10005000082004202508A6000820A00A1F288A11CD
:100060005428840183131F308305723083168F0058
:100070000F081F129F121B0880399B0007309C003D
:10008000FF308500003086001F129F121B08803948
:100090000B389B001F1383121F179F1383169F1784
:1000A00083121F1404201C280030F8001F08C739D1
:1000B00078049F001430A60008201F151F195E2821
:1000C00083161E088312A3001E08A4002408023C05
:1000D000031C7228031D70282308DC3C031C7228B3
:0A00E000061073280614542863006C
:04400E00183FFF3F19
:00000001FF
;PIC16F88
;CRC=33C6  CREATED="29-mar-12 00:39"
