:1000000000308A0031280000061486148615080086
:10001000253084008313000803191B280230F800E0
:10002000F701F70B1128F80B10289730F700F70BA2
:100030001728800B0E2808006430A400A0012008B7
:10004000043C031C2F280610861086112408A500E6
:10005000082004202408A5000820A00A1F288A11CF
:100060005428840183131F308305723083168F0058
:100070000F081F129F121B0880399B0007309C003D
:10008000FF308500003086001F129F121B08803948
:1000900001389B001F1383121F179F1383169F1392
:1000A00083121F1404201C280030F8001F08C739D1
:1000B00078049F000A30A50008201F151F195E282C
:1000C0001E08A3002308D33C031C682806106928D7
:1000D00006142308C53C031C6F2806167028061258
:0400E000542863003D
:04400E00183FFF3F19
:00000001FF
;PIC16F88
;CRC=9907  CREATED="29-mar-12 11:51"
