:1000000000308A002528000083160610831206148B
:100010008316861083128614831606118312061522
:1000200008002330840083130008031924280230B9
:10003000F800F701F70B1A28F80B19289730F7008A
:10004000F70B2028800B17280800840183131F302A
:100050008305723083168F000F081F129F121B0832
:1000600080399B0007309C00831204208316061001
:10007000831206100430A200FA30A3001120A20B54
:100080003C2883168610831286100430A200FA30B2
:10009000A3001120A20B4728831606118312061114
:1000A0000430A200FA30A3001120A20B5228042031
:1000B0000430A200FA30A3001120A20B5A283628DF
:0200C0006300DB
:04400E00183FFF3F19
:00000001FF
;PIC16F88
;CRC=51AD  CREATED="28-mar-12 18:52"
