:1000000000308A0031280000061486148615080086
:10001000273084008313000803191B280230F800DE
:10002000F701F70B1128F80B10289730F700F70BA2
:100030001728800B0E2808006430A600A0012008B5
:10004000043C031C2F280610861086112608A700E2
:10005000082004202608A7000820A00A1F288A11CB
:100060005428840183131F308305723083168F0058
:100070000F081F129F121B0880399B0007309C003D
:10008000FF308500003086001F129F121B08803948
:100090007F389B001F1383121F179F1383169F1314
:1000A00083121F1404201C280030F8001F08C739D1
:1000B00078049F000A30A70008201F151F195E282A
:1000C0001E08A3002308D33C031C682806106928D7
:1000D00006140830F8001F08C73978049F000A305A
:1000E000A70008201F151F1973281E08A400240844
:1000F000D33C031C7D2886107E2886141030F8001F
:100100001F08C73978049F000A30A70008201F1570
:100110001F1988281E08A5002508D33C031C922817
:100120008611932886152308C53C03189F282408A8
:10013000C53C03189F282508C53C031CA1280616AA
:08014000A228061254286300F6
:04400E00183FFF3F19
:00000001FF
;PIC16F88
;CRC=4A96  CREATED="29-mar-12 15:44"
