:1000000000308A0018280000233084008313000881
:10001000031917280230F800F701F70B0D28F80B29
:100020000C289730F700F70B1328800B0A280800DC
:10003000840183131F308305723083168F000F08ED
:100040001F129F121B0880399B0007309C008312EF
:100050008501FF3083168500003086001F129F1235
:100060001B0880397F389B001F1383121F179F13B3
:1000700083169F1383121F1486110C3097000030D3
:10008000F800043892007C308316920083129501A8
:100090000030F8001F08C73978049F000A30A30019
:1000A00004201F151F1952281E08A0000830F80050
:1000B0001F08C73978049F000A30A30004201F15C9
:1000C0001F1960281E08A1001030F8001F08C7394A
:1000D00078049F000A30A30004201F151F196E2802
:1000E0001E08A2002008A83C031C782806107928C6
:1000F00006142108A83C031C7F288610802886143B
:100100002208A83C031C8B28061180309500170894
:10011000CF3997008D28061595012008A83C0318B3
:1001200099282108A83C031899282208A83C031CF8
:100130009F28803095001708CF399700A028950197
:0A0140000A30A300042048286300E1
:04400E00112FFC3F33
:00000001FF
;PIC16F88
;CRC=79B0  CREATED="26-mar-12 10:50"
