:1000000000308A0019280000213084008313000882
:10001000031917280230F800F701F70B0D28F80B29
:100020000C289730F700F70B1328800B0A288A1149
:100030003F28840183131F308305723083168F009D
:100040000F081F129F121B0880399B0007309C006D
:1000500000308600831286110C3097000030F800C3
:10006000043892007C308316920083129501803010
:1000700095001708CF3997000A30A10004283728C7
:0200800063001B
:04400E00112FFC3F33
:00000001FF
;PIC16F88
;CRC=4F61  CREATED="28-mar-12 12:34"
