:1000000000308A004328000083160610831206146D
:100010008316861083128614831606118312061522
:1000200008002430840083130008031924280230B8
:10003000F800F701F70B1A28F80B19289730F7008A
:10004000F70B2028800B172808006430A300A001BC
:100050002008043C031C4128831606108312061056
:1000600083168610831286108316061183120611DA
:100070002308A400112004202308A4001120A00AB2
:1000800028288A115528840183131F308305723074
:1000900083168F000F081F129F121B0880399B00C8
:1000A00007309C0083120420252883160610831233
:1000B00006100430A300FA30A4001120A30B5B2823
:1000C00083168610831286100430A300FA30A40031
:1000D0001120A30B66288316061183120611043023
:1000E000A300FA30A4001120A30B712804200430CF
:1000F000A300FA30A4001120A30B7928552863002F
:04400E00183FFF3F19
:00000001FF
;PIC16F88
;CRC=1112  CREATED="28-mar-12 20:05"
